:100000000C94BF010C94D1010C94D1010C94D1013A
:100010000C94D1010C94D1010C94D1010C94D10118
:100020000C94D1010C94CD0B0C94D1010C94AF0C19
:100030000C94D1010C94D1010C94D1010C94D101F8
:100040000C94D1010C94D1010C942C0A0C94D10184
:100050000C94D1010C94D1010C94D1010C94D101D8
:100060000C94D1010C94D101084AD73B3BCE016ED0
:1000700084BCBFFDC12F3D6C74319ABD56833DDAFF
:100080003D00C77F11BED9E4BB4C3E916BAAAABE0E
:10009000000000803F05A84CCDB2D44EB93836A937
:1000A000020C50B9918688083CA6AAAA2ABE000074
:1000B00000803F0D0A00466C6F6174696E672070A6
:1000C0006F696E74206572726F720D0A00556E73DF
:1000D0007570706F727465642073746174656D659A
:1000E0006E740D0A00457870656374656420636FF3
:1000F0006D6D616E64206C65747465720D0A0042EA
:100100006164206E756D62657220666F726D6174D8
:100110000D0A006572726F723A20006F6B0D0A0053
:100120000D0A000D0A4772626C20302E36620057AD
:1001300061726E696E673A204661696C656420740D
:100140006F207265616420454550524F4D207365A4
:100150007474696E67732E205573696E67206465C9
:100160006661756C74732E0D0A0027242720746F46
:100170002064756D702063757272656E742073658E
:100180007474696E67730D0A0053746F726564202E
:100190006E65772073657474696E670D0A00556E1D
:1001A0006B6E6F776E20706172616D657465720D34
:1001B0000A000D0A2724783D76616C756527207446
:1001C0006F2073657420706172616D657465722053
:1001D0006F72206A7573742027242720746F20643F
:1001E000756D702063757272656E742073657474BA
:1001F000696E67730D0A0020286D617820696E733F
:1002000074616E7420636F726E6572696E672073BD
:1002100070656564206368616E676520696E20643F
:10022000656C7461206D6D2F6D696E2900202861E9
:100230006363656C65726174696F6E20696E206DB1
:100240006D2F7365635E32290D0A2439203D20002D
:10025000290D0A2438203D20002028737465702061
:10026000706F727420696E76657274206D61736B45
:100270002E2062696E617279203D200020286D6D0C
:100280002F617263207365676D656E74290D0A2492
:1002900037203D200020286D6D2F6D696E2064652C
:1002A0006661756C74207365656B20726174652975
:1002B0000D0A2436203D200020286D6D2F6D696EBB
:1002C0002064656661756C74206665656420726182
:1002D0007465290D0A2435203D200020286D6963AE
:1002E000726F7365636F6E647320737465702070D2
:1002F000756C7365290D0A2434203D200020287375
:10030000746570732F6D6D207A290D0A2433203D9A
:100310002000202873746570732F6D6D2079290D6E
:100320000A2432203D2000202873746570732F6DDD
:100330006D2078290D0A2431203D20002430203DF5
:100340002000494E46494E4954594E414ECDCCCCE1
:100350003D0AD7233C17B7D13877CC2B329595E699
:10036000241FB14F0A000020410000C84200401C79
:100370004620BCBE4CCA1B0E5AAEC59D740011244B
:100380001FBECFEFD8E0DEBFCDBF16E0A0E0B1E0EA
:1003900001C01D92AB3BB107E1F70E94D3010C9461
:1003A000A5210C9400000E94B70B0E944F110E94DF
:1003B000E4180E944D0C0E94C5090E94DC030E94B3
:1003C0002F1983B7816083BF889583B78E7F83BFE2
:1003D0000E94550BF6CF0E948D0C08952F923F92EC
:1003E0004F925F926F927F928F929F92AF92BF9245
:1003F000CF92DF92EF92FF920F931F93DF93CF93F1
:10040000CDB7DEB7AE970FB6F894DEBF0FBECDBF47
:100410002B013C0129A33AA34BA35CA3EDA2FEA2AE
:100420000FA318A72F962EAC3FAC2F970E94FD115B
:1004300098A38F8F80E090E00E94CA1869A17AA1EA
:100440008BA19CA12DA13EA14FA158A50E94771E72
:100450007B018C01C601B5010E94DE1B97FF07C01E
:1004600090958095709561957F4F8F4F9F4F0E941B
:10047000111C9B01AC01C801B7010E947F1D7B01CB
:100480008C0120E030E040E050E00E946F1B8823A8
:1004900009F424C1C801B7012091AD063091AE0620
:1004A0004091AF065091B0060E94761B0E94DA1E62
:1004B0000E94E31B7E8F6D8F2D962EAD3FAD2D9745
:1004C000232BA1F080E090E00E940F1C9B01AC0167
:1004D0002B966CAD7DAD8EAD9FAD2B970E94771E98
:1004E0002B966CAF7DAF8EAF9FAF2B97ED8DFE8DB2
:1004F000BF0180E090E00E940F1C7B018C0169A18C
:100500007AA18BA19CA1A80197010E94761B698FFB
:100510007A8F8B8F9C8FC601B501A80197010E942D
:10052000761B6D8B7E8B8F8B988FC301B2010E94DF
:10053000FA1E6401CC0CDD1CCC0CDD1C81010C0D01
:100540001D1D2DA13EA14FA158A50E94771E9B0104
:10055000AC01D8016D917D918D919C910E94CF1A33
:10056000698B7A8B8B8B9C8BC301B2010E94731BAE
:1005700025960EAD1FAD2597000F111F000F111FFF
:100580007101E00EF11E2DA13EA14FA158A50E94C0
:10059000771E9B01AC01F70160817181828193819B
:1005A0000E94CF1A6D877E878F87988B27968EAD96
:1005B0009FAD2797880F991F880F991F9E012F5F66
:1005C0003F4FF901E80FF91F280E391ED1014D9157
:1005D0005D916D917C91408351836283738322246A
:1005E0003324FAA7E9A7F901EC0DFD1DFCA7EBA741
:1005F000C901800F911F9EA78DA766C0A9A5BAA5A6
:100600006D917D918D919C912D893E894F89588D59
:100610000E94D01AE9A5FAA560837183828393832F
:10062000C301B201298D3A8D4B8D5C8D0E94D01A89
:100630002B013C010E94FA1E2DA13EA14FA158A5FD
:100640000E94771E9B01AC0169897A898B899C89FC
:100650000E94D01AABA5BCA56D937D938D939C93FE
:100660001397C301B2010E94731B2DA13EA14FA19C
:1006700058A50E94771E9B01AC016D857E858F85F4
:1006800098890E94D01AEDA5FEA5608371838283AC
:10069000938369817A818B819C812D813E814F81F9
:1006A0005885E984FA840B851C852B96ACACBDACCF
:1006B000CEACDFAC2B972D968EAC9FAC2D970E94C5
:1006C0006D150894211C311C2D8D3E8D221633068C
:1006D00008F494CF8F8D98A10E94CA18AE960FB6D9
:1006E000F894DEBF0FBECDBFCF91DF911F910F9168
:1006F000FF90EF90DF90CF90BF90AF909F908F9042
:100700007F906F905F904F903F902F900895AF92A1
:10071000BF92CF92DF92EF92FF920F931F937B01D4
:100720008C010E94A20CC801B7010E940F1C5B0142
:100730006C0120E030E04AE755E40E94771E7B011F
:100740008C0120E030E040E85FE30E946F1B8823CB
:100750001CF461E070E024C0C801B70120E03FEF65
:100760004FE757E40E94721D1816B4F4C601B50194
:1007700020E030E040E251E40E94771E0E94E31B3B
:1007800080E991E005C0FC013197F1F761507040BC
:1007900061157105C1F707C0C801B7010E94E31BCD
:1007A000CB010197F1F71F910F91FF90EF90DF9030
:1007B000CF90BF90AF90089581E2E0E0F1E0DF01DB
:1007C0001D928A95E9F76091A4067091A506809123
:1007D000A6069091A70620E030E040E752E40E9490
:1007E000761B609307017093080180930901909331
:1007F0000A016091A8067091A9068091AA069091BD
:10080000AB0620E030E040E752E40E94761B6093A4
:100810000B0170930C0180930D0190930E011092C7
:100820001E0191E090931F0182E08093200190933C
:10083000040108950F931F93CF93DF93EC018B0175
:10084000D9018C91FA01E80FF11DE081EE23B1F09E
:10085000E883E154EA3110F082E00EC08C918F5FA2
:100860008C93CA01B901A8010E94F418892B19F0D0
:1008700021E030E005C081E08093000120E030E01D
:10088000C901DF91CF911F910F910895AF92BF924F
:10089000CF92DF92EF92FF920F931F9379018A011B
:1008A0005F770E94761B0E94341B5B016C01C801BC
:1008B000B70120E030E040E050E00E94721D1816C1
:1008C000CCF0C601B50120E030E040E050E00E94ED
:1008D000721D18162CF46BED7FE089E490E404C0DF
:1008E0006BED7FE089E490ECA60195010E94CF1AA0
:1008F0005B016C01B501C6011F910F91FF90EF9054
:10090000DF90CF90BF90AF9008952F923F924F927B
:100910005F926F927F928F929F92AF92BF92CF928F
:10092000DF92EF92FF920F931F93DF93CF93CDB798
:10093000DEB7E9970FB6F894DEBF0FBECDBF2C012E
:1009400019828CE0FE013796DF01282F1D922A952F
:10095000E9F7FE017396DF011D928A95E9F710927F
:100960000001F2018081883211F480E0F5C48F32F9
:1009700009F0F5C089818F5F8983F1C06B817C812B
:100980008D819E810E94451F7B018C010E94DE1B90
:100990004A814D3409F4ACC0443509F4D5C047341C
:1009A00009F0D8C06531710509F48AC06631710556
:1009B0008CF56430710509F45CC065307105ACF4E8
:1009C0006130710509F45BC0623071052CF461156A
:1009D000710509F451C0B5C06230710509F452C007
:1009E0006330710509F0ADC050C06231710509F482
:1009F00056C0633171052CF46131710509F0A1C055
:100A000047C06331710509F451C06431710509F0C3
:100A100098C053C06A35710509F45BC06B35710528
:100A2000A4F46E31710511F16F3171052CF46C3144
:100A3000710509F086C01AC06533710509F443C019
:100A40006035710509F07DC041C06C35710509F450
:100A500046C06C3571050CF43FC06D35710509F465
:100A600041C06E35710509F06CC03FC0F2E0FCA7D3
:100A700071C021E02CA76EC0109201016BC0D09212
:100A8000010168C0C092010165C0B092010162C05D
:100A900010921E01D0921F01C09220015BC01092E3
:100AA0001E01C0921F01D092200154C0D0921E019D
:100AB000C0921F01109220014DC0D09203014AC084
:100AC0001092030147C031E03DA744C0A09201014C
:100AD00041C0D09204013EC0109204013BC063E0CB
:100AE0006CA738C0D092020135C01092020132C00A
:100AF00063307105E1F06430710534F477FD21C095
:100B00006230710574F010C065307105B9F0653060
:100B1000710584F06E31710539F06C33710589F41B
:100B200003C0D092050116C0C092050113C0D09237
:100B3000060110C07FEF709306010CC010920601F1
:100B400009C0B092000106C0C801B7010E94E31BB2
:100B500060931B01809100018823C9F021C01DA66C
:100B60001CA612E0612E712C6C0E7D1EB3E02B2EA4
:100B7000312C2C0E3D1E4E010894811C911CDD244D
:100B8000D394A3E0BA2EF2E0CF2EE4E0AE2EC30160
:100B9000B101A20194010E941A04892B09F0EECE42
:100BA00080910001882309F0D7C319828CE0FE01EF
:100BB0007396DF011D928A95E9F7DE011796EFE043
:100BC000F1E08CE001900D928150E1F71EAA1FAA7E
:100BD000B0E8B8AFEFEBE9AF222433240F2EF0E0FA
:100BE0008F2EF0E09F2EF0E0AF2EF0E0BF2EF02D24
:100BF00088A699A6AAA6BBA63E010894611C711CF2
:100C0000BAC0CB80DC80ED80FE8080910301882318
:100C100019F4A70196010AC0C701B60123E333E323
:100C20004BEC51E40E94771E9B01AC010A81003518
:100C300009F464C001355CF4063401F106340CF4A7
:100C40009AC0802F8954833008F095C046C0033580
:100C500009F457C0043524F4023509F08CC006C0ED
:100C6000802F8855833008F086C054C028A739A744
:100C70004AA75BA771E0272E312C7DC0809102012D
:100C8000882329F02EAB3FAB48AF59AF74C0809199
:100C90000101882389F4CA01B90120E030E040E76E
:100CA00052E40E94761B60930B0170930C018093B9
:100CB0000D0190930E015FC0CA01B90120E030E040
:100CC00040E752E40E94761B60930701709308018D
:100CD0008093090190930A014EC0E02FFF27E7FDA2
:100CE000F095E954F040EE0FFF1FEE0FFF1FE60DE9
:100CF000F71D228B338B448B558B3DC0460157012A
:100D00003AC0C701B6010E94DE1B70931D016093BB
:100D10001C0131C080910401882319F4FDA5FF2333
:100D200089F0E02FFF27E7FDF095E855F040EE0F42
:100D3000FF1FEE0FFF1FE60DF71D26833783408749
:100D4000518719C0112707FD109508551040000F55
:100D5000111F000F111F060D171DD80116966D915A
:100D60007D918D919C9119970E94D01AF80166830C
:100D7000778380879187CE010296BE016D5F7F4F9A
:100D8000A20193010E941A04892B09F03ACF8091A5
:100D90000001882309F0E0C280910601882371F0E8
:100DA00040911C0150911D01662757FD6095762FDB
:100DB000992787FD90950E94CB0902C00E94C70920
:100DC000FCA5F13091F0F13060F1F23021F0F33018
:100DD00009F0B7C217C00E94EB018CE0EFE0F1E030
:100DE000DF011D928A95E9F7ACC2C501B40120E08C
:100DF00030E04AE754E40E94771E0E94E31B0E9401
:100E000087039FC26F81788589859A852B853C856C
:100E10004D855E85EF84F88809891A890E9423121E
:100E200090C2B0900101B1E0BB16F1F0BB1628F002
:100E3000E3E0EB1508F485C235C06F8178858985BC
:100E40009A852B853C854D855E85EF84F8880989D8
:100E50001A89A0900B01B0900C01C0900D01D090A8
:100E60000E01882499246BC26F81788589859A85C3
:100E70002B853C854D855E85EF84F88809891A8924
:100E800080900201882009F053C2F0910701FEAB67
:100E9000A0910801AFABB0910901B8AFE0910A0190
:100EA000E9AF46C2232809F4E7C0E0911E01F0E053
:100EB000EE0FFF1FEE0FFF1F8E010F5F1F4FD801B8
:100EC000AE0FBF1FE050FF4F16966D917D918D9133
:100ED0009C91199727853089418952890E94CF1AA0
:100EE0001B012C01E0911F01F0E0EE0FFF1FEE0F40
:100EF000FF1F0E0F1F1FE050FF4FD80116966D9178
:100F00007D918D919C9119972785308941895289CE
:100F10000E94CF1A3B014C018CE0FE017396DF0169
:100F20001D928A95E9F768A579A58AA59BA520E079
:100F300030E040E850E40E94771E28A539A54AA574
:100F40005BA50E94771E7B018C01C201B101A20149
:100F500091010E94771E9B01AC01C801B7010E945C
:100F6000CF1A7B018C01C401B301A40193010E943B
:100F7000771E9B01AC01C801B7010E94CF1A0E94E5
:100F8000041F7B018C01C201B101A40193010E94E5
:100F90007F1D9B01AC0117FB109517F91095C80137
:100FA000B7010E94761B6B017C01A70196010E948C
:100FB0004C1F882321F084E080930001CDC1B3E071
:100FC000BB1621F4F7FAF094F7F8F09468A579A528
:100FD0008AA59BA520E030E040E050E00E946F1B16
:100FE000882324F4F7FAF094F7F8F09400911E01A6
:100FF000A02EBB24AA0CBB1CAA0CBB1C8E010F5F2D
:101000001F4FA00EB11EC401B301A70196010E949B
:10101000771E9B01AC01C201B1010E94CF1A20E0F2
:1010200030E040E05FE30E94771EF501628B738B36
:10103000848B958B80911F0190E0880F991F880FFA
:10104000991F080F191FC201B101A70196010E9443
:10105000771E9B01AC01C401B3010E94D01A20E0AD
:1010600030E040E05FE30E94771ED80152966D9316
:101070007D938D939C935597E0911E01F0E0EE0FC8
:10108000FF1FEE0FFF1F8E010F5F1F4FE00FF11FBD
:1010900062897389848995899058E0911F01F0E0F5
:1010A000EE0FFF1FEE0FFF1FE00FF11F22893389A4
:1010B0004489558950580E9446046CA37DA38EA391
:1010C0009FA380911E01E82EFF2480911F01A82E6E
:1010D000BB24EE0CFF1CEE0CFF1CF801EE0DFF1DF7
:1010E00066817781808591852289338944895589F4
:1010F0000E94CF1AE0E0F1E0EE0EFF1ED7011F962E
:101100002D913D914D915C9152970E94CF1A6B01A8
:101110007C01AA0CBB1CAA0CBB1C0A0D1B1DF801F0
:1011200066817781808591852289338944895589B3
:101130000E94CF1A20E031E0A20EB31ED5011F9607
:101140002D913D914D915C9152970E94CF1A9B0138
:10115000AC01C701B6010E9446047B018C012CA1A1
:101160003DA14EA15FA10E946F1B882354F4C801CA
:10117000B7012BED3FE049EC50E40E94D01A7B010F
:101180008C01C801B7012CA13DA14EA15FA10E9415
:10119000CF1A2B013C0180910101833051F4C3012E
:1011A000B2012BED3FE049EC50E40E94CF1A2B0135
:1011B0003C0180911E01E82FF0E0FBA3EAA3EE0FB3
:1011C000FF1FEE0FFF1FDE011196EA0FFB1FE288E3
:1011D000F3880489158980911F01282F30E039A3F5
:1011E00028A3F901EE0FFF1FEE0FFF1FEA0FFB1FF1
:1011F000228933894489558980912001282E3324FE
:10120000F101EE0FFF1FEE0FFF1FAE0FBF1F16966F
:101210006D917D918D919C9119976EA77FA788AB59
:1012200099ABE050FF4FA784B088C188D2887091F5
:1012300002017F8F772349F08EA98AAB9FA99BABD0
:10124000A8ADACABB9ADBDAB0CC0E0910701EAAB4A
:10125000F0910801FBAB609109016CAB70910A0140
:101260007DABC801B7010E947F1D7B018C018DB74A
:101270009EB70C970FB6F8949EBF0FBE8DBF8DB66C
:101280009EB60894811C911C6EA57FA588A999A97A
:10129000A60195010E94CF1A5B016C01E8A1F9A19A
:1012A000D4011196FC93EE9313963C922E921297D2
:1012B0002AA93BA94CA95DA9C901DA01F4018483DB
:1012C0009583A683B7832F8D208711868FE091E0C9
:1012D000938782876CA17DA18EA19FA1A30192011A
:1012E0008AA09BA00E94EE016F81788589859A85EE
:1012F0002B853C854D855E85EF84F88809891A89A0
:1013000080900201ADB7BEB71C960FB6F894BEBF71
:101310000FBEADBF882061F4B0910701BEABE09174
:101320000801EFABF0910901F8AFA0910A01A9AF54
:10133000EEA9FFA9A8ADB9AD5F016D0199240E9486
:101340006D15AFE0B1E0FE0137968CE001900D9293
:101350008150E1F780910001E9960FB6F894DEBF65
:101360000FBECDBFCF91DF911F910F91FF90EF90F6
:10137000DF90CF90BF90AF909F908F907F906F90B5
:101380005F904F903F902F900895249A08950E9467
:10139000A20C2C9808950F931F938C010E94A20C0D
:1013A00017FD02C02D9801C02D9A2C9A1F910F9104
:1013B0000895EF92FF920F931F937B018C0122E01F
:1013C00030E040E050E00E94BC1F205C3D4B404FAD
:1013D0005F4FCA01B901A80197010E94BC1FC90152
:1013E000DA010197A109B109292F3A2F4B2F55276F
:1013F00047FD5A950196A11DB11D2093C50081504E
:101400008093C400E0ECF0E080818D7F8083E1EC8C
:10141000F0E080818061808380818860808380812A
:10142000806880831F910F91FF90EF9008959091B5
:10143000220180912101891719F42FEF3FEF0AC093
:10144000892F90E0FC01EA56FA4F208101968093A3
:10145000220130E0C90108951F920F920FB60F923A
:1014600011242F933F934F938F939F93EF93FF9369
:101470004091C60080912101E82FF0E031969F0154
:10148000307031978091220190E02817390729F0B8
:10149000EA56FA4F408320932101FF91EF919F91EB
:1014A0008F914F913F912F910F900FBE0F901F90F2
:1014B00018959C0106C08091C00085FFFCCF9093D9
:1014C000C600F9012F5F3F4F94919923A1F708952A
:1014D0002F923F924F925F926F927F928F929F9244
:1014E000AF92BF92CF92DF92EF92FF920F931F9332
:1014F000DF93CF93CDB7DEB7A0970FB6F894DEBFDA
:101500000FBECDBF6B017C0129013A016115710548
:101510008105910541F48091C00085FFFCCF80E3F7
:101520008093C60049C08824992454011E01089460
:10153000211C311C8101080D191DC701B601A30131
:1015400092010E949A1FF80160830894811C911CEB
:10155000A11CB11CC701B601A30192010E949A1FF0
:10156000C901DA016C017D01C114D104E104F10467
:1015700009F79101280D391DBE016F5F7F4FD5011D
:10158000C4010197A109B109AC014819590911C059
:10159000FA01E20FF31FE081EA3010F4E05D01C0D0
:1015A000E95C8091C00085FFFCCFE093C60021502C
:1015B00030406217730761F7A0960FB6F894DEBF4C
:1015C0000FBECDBFCF91DF911F910F91FF90EF9094
:1015D000DF90CF90BF90AF909F908F907F906F9053
:1015E0005F904F903F902F9008959B01AC0197FF23
:1015F0000EC08091C00085FFFCCF8DE28093C600B5
:1016000050954095309521953F4F4F4F5F4FCA0100
:10161000B9012AE030E040E050E00E94680A0895F5
:10162000EF92FF920F931F93DF93CF9300D000D0E0
:10163000CDB7DEB7AE014F5F5F4F0E94441E7B0106
:101640008C0169817A818B819C810E94DE1B0E94C2
:10165000F50A8091C00085FFFCCF8EE28093C60022
:10166000C801B70120E030E04AE754E40E94771E49
:101670000E94DA1E0E94DE1B0E94F50A0F900F9056
:101680000F900F90CF91DF911F910F91FF90EF90EE
:101690000895FC018081843221F4CF010E946311FE
:1016A0000895CF010E94850408951F93CF93DF937F
:1016B00054C0E0915501EE23F1F19A3011F09D30C4
:1016C000D1F5F0E0ED5DFE4F108283E291E00E94E3
:1016D000490B182FC82FD0E0209719F48BE191E027
:1016E00025C083E191E00E94590A123069F013305D
:1016F00018F4113091F405C0133049F0143069F436
:1017000009C08FEF90E012C085EE90E00FC08DEC25
:1017100090E00CC086EB90E009C0BE01882777FD01
:101720008095982F0E94F50A83EB90E00E94590A59
:101730001092550112C0913284F0892F8156AE2F3C
:10174000B0E0EF5F8A3120F4AD5DBE4F905202C031
:10175000AD5DBE4F9C93E09355010E94170A982FF0
:101760008F3F09F0A6CFDF91CF911F91089560E8D8
:1017700075E280E090E00E94D90983E291E00E9446
:10178000590A80E291E00E94590A0895289AEFE6EA
:10179000F0E080818260808308951F920F920FB6DF
:1017A0000F9211248F939F939BB18091AC068C7103
:1017B000937E892B8BB99F918F910F900FBE0F90C5
:1017C0001F9018959B01AC01203B84E0380780E016
:1017D000480780E0580720F420EB34E040E050E078
:1017E00060E070E788E399E30E949A1FC901DA017B
:1017F000803020E0920721E0A20720E0B20738F411
:10180000FC019C0140E050E060E070E031C08030BD
:1018100020E0920728E0A20720E0B207A8F473E0D6
:10182000B695A795979587957A95D1F7FC019C0178
:1018300040E050E063E0220F331F441F551F6A95BC
:10184000D1F761E070E014C026E0B695A7959795B2
:1018500087952A95D1F7FC019C0140E050E086E095
:10186000220F331F441F551F8A95D1F762E070E0A5
:1018700080918100962F9F5F887F982B90938100A5
:10188000F0938900E093880020936B0130936C0102
:1018900040936D0150936E0108958AB18C6F8AB99F
:1018A0008BB183709091AC06892B8BB9209AE1E8BB
:1018B000F0E080818F7E8083808188608083E0E893
:1018C000F0E080818D7F808380818E7F8083808126
:1018D0008F73808380818F7C80831092B00082E040
:1018E0008093B100E0E7F0E080818160808360E771
:1018F00077E180E090E00E94E20B10926F0110927D
:10190000700110927101109272012898EFE6F0E0D8
:1019100080818D7F808378940895EF92FF920F935A
:101920001F930E94901A60E070E080E090E09B01BD
:10193000AC017B018C010E9423121F910F91FF903B
:10194000EF90089507C083B7816083BF889583B700
:101950008E7F83BF0E941012892BA9F708951F92D2
:101960000F920FB60F921124EF92FF920F931F93D5
:101970002F933F934F935F936F937F938F939F9397
:10198000AF93BF93CF93DF93EF93FF938091690160
:1019900090916A01892B09F005C29BB120915801F1
:1019A000822F807E9F71892B8BB98BB1837E822B96
:1019B0008BB92091A30682E090E0A0E0B0E0821B0A
:1019C0009109A109B109880F991FAA1FBB1F809314
:1019D000B20081E090E090936A018093690178946D
:1019E0008091560190915701892B09F056C00E94B1
:1019F0001012EC019093570180935601009709F45F
:101A000046C06DA57EA58FA598A9609373017093BC
:101A10007401809375019093760110926F0110927A
:101A2000700110927101109272010E94E20B8D857B
:101A30009E85AF85B889B595A79597958795B095FB
:101A4000A095909581959F4FAF4FBF4F80935901BF
:101A500090935A01A0935B01B0935C0180935D0168
:101A600090935E01A0935F01B09360018093610148
:101A700090936201A0936301B09364011092650199
:101A800010926601109267011092680106C02898B2
:101A900080916F008D7F80936F00E0915601F091EF
:101AA0005701309709F4BAC06485609358012091BA
:101AB000590130915A0140915B0150915C01808144
:101AC0009181A281B381280F391F4A1F5B1F209388
:101AD000590130935A0140935B0150935C011216F7
:101AE0001306140615069CF46460609358018585FE
:101AF0009685A785B089281B390B4A0B5B0B209371
:101B0000590130935A0140935B0150935C0120913D
:101B10005D0130915E0140915F01509160018481CF
:101B20009581A681B781280F391F4A1F5B1F20931B
:101B30005D0130935E0140935F0150936001121686
:101B4000130614061506ACF4809158018860809342
:101B5000580185859685A785B089281B390B4A0BC6
:101B60005B0B20935D0130935E0140935F015093C6
:101B700060012091610130916201409163015091B7
:101B8000640180859185A285B385280F391F4A1F7E
:101B90005B1F209361013093620140936301509376
:101BA00064011216130614061506ACF48091580150
:101BB00080618093580185859685A785B089281B0B
:101BC000390B4A0B5B0B2093610130936201409308
:101BD0006301509364018091650190916601A09129
:101BE0006701B09168010196A11DB11D8093650147
:101BF00090936601A0936701B093680125853685AF
:101C00004785508982179307A407B50748F01092BB
:101C10005701109256010E94011202C01092580101
:101C2000809158019091AC068927809358012091AA
:101C30006B0130916C0140916D0150916E0180916A
:101C40006F0190917001A0917101B0917201280F04
:101C5000391F4A1F5B1F20936F013093700140931F
:101C600071015093720121388AE1380786E04807F4
:101C700080E0580708F492C020583A41464050404E
:101C800020936F0130937001409371015093720162
:101C9000E0915601F0915701309709F47FC0E09030
:101CA0006501F0906601009167011091680181ADB6
:101CB00092ADA3ADB4ADE816F9060A071B0788F488
:101CC00065A976A987A990AD20917301309174011F
:101CD0004091750150917601620F731F841F951F0B
:101CE00053C0FD9680819181A281B381FD9720919F
:101CF00073013091740140917501509176018E15F8
:101D00009F05A007B107B8F585A996A9A7A9B0AD09
:101D100082179307A407B50760F4281B390B4A0BF9
:101D20005B0B2093730130937401409375015093C2
:101D3000760121A932A943A954A9809173019091F8
:101D40007401A0917501B091760182179307A407E1
:101D5000B50740F4209373013093740140937501EB
:101D600050937601609173017091740180917501B7
:101D70009091760111C061897289838994892617AF
:101D800037074807590751F0609373017093740146
:101D900080937501909376010E94E20B10926A0184
:101DA00010926901FF91EF91DF91CF91BF91AF91B7
:101DB0009F918F917F916F915F914F913F912F9163
:101DC0001F910F91FF90EF900F900FBE0F901F90FB
:101DD0001895F999FECF92BD81BD81E08FBB80B58A
:101DE0000895F894F999FECF92BD81BD81E08FBB33
:101DF00040B54627842F992787FD9095262F30E000
:101E000082239323892B39F06F3F19F060BD84E062
:101E100006C084E104C0442321F060BD84E28FBB8E
:101E2000F99A789408958F929F92AF92BF92CF9231
:101E3000DF92EF92FF920F93DF93CF9300D0CDB755
:101E4000DEB75C016B017A014A0100E01EC000238D
:101E500019F021E030E008C0202F332727FD30950E
:101E60002227330F221F3327F60161916F01062FBE
:101E7000020F9C012F5F3F4F3A8329830E94F10E8E
:101E800008948108910889819A8181149104F9F656
:101E9000C7018A0D9B1D602F0E94F10E0F900F90BD
:101EA000CF91DF910F91FF90EF90DF90CF90BF9097
:101EB000AF909F908F900895CF93DF93EC01FB013B
:101EC0009A0190E0B1E019C0F999FECFF2BDE1BDF1
:101ED000BFBBA0B5992319F081E090E008C0892F1D
:101EE000992787FD90958827990F881F9927319604
:101EF0009A2F980FA993215030402115310521F7D1
:101F0000460F571FF999FECF52BD41BD81E08FBBEF
:101F100080B520E030E0981711F421E030E0C901ED
:101F2000DF91CF91089584EF99EFACE3B4E480930F
:101F3000960690939706A0939806B093990680937F
:101F40009A0690939B06A0939C06B0939D0680935F
:101F50009E0690939F06A093A006B093A1068EE1E3
:101F60008093A30680E090E0AAEFB3E48093A406F8
:101F70009093A506A093A606B093A7068093A80603
:101F80009093A906A093AA06B093AB0680E090E0D8
:101F9000A8E4B2E48093B1069093B206A093B3068E
:101FA000B093B4068DEC9CECACECBDE38093AD0635
:101FB0009093AE06A093AF06B093B0061092AC0615
:101FC00080E090E0A6E9B3E48093B5069093B6066E
:101FD000A093B706B093B806089580E090E00E9401
:101FE000E90E823081F486E996E061E070E043E238
:101FF00050E00E945C0F20E0892B09F421E081E091
:10200000282730E029C0813029F586E996E061E093
:1020100070E04BE150E00E945C0F892BD9F080E02A
:1020200090E0A8E4B2E48093B1069093B206A09346
:10203000B306B093B40680E090E0A6E9B3E48093E1
:10204000B5069093B606A093B706B093B80621E004
:1020500030E002C020E030E0C901089580E090E067
:1020600062E00E94F10E81E090E066E976E043E2F2
:1020700050E00E94130F0895FC0185309105B9F1DD
:10208000863091054CF483309105F9F08430910548
:102090002CF597FF0FC05BC087309105D1F18730D9
:1020A000910574F188309105E9F18930910509F0C5
:1020B0004EC041C0EE0FFF1FEE0FFF1FEA56F94F53
:1020C000408351836283738345C0CB01BA010E9470
:1020D000DA1E0E94E31B6093A3063CC04093A40653
:1020E0005093A5066093A6067093A70633C040934D
:1020F000A8065093A9066093AA067093AB062AC05F
:102100004093AD065093AE066093AF067093B00651
:1021100021C0CB01BA010E94451F0E94E31B6093BE
:10212000AC0618C04093B1065093B2066093B30654
:102130007093B4060FC0DB01CA01BF778093B50668
:102140009093B606A093B706B093B80603C08EE985
:1021500091E004C00E942E1089E891E00E94590A83
:1021600008958CE393E00E94590A6091960670915D
:10217000970680919806909199060E94100B87E22D
:1021800093E00E94590A60919A0670919B06809193
:102190009C0690919D060E94100B82E193E00E94A4
:1021A000590A60919E0670919F068091A0069091B9
:1021B000A1060E94100B8DEF92E00E94590A6091D7
:1021C000A30670E080E090E00E94F50A8BED92E0BB
:1021D0000E94590A6091A4067091A5068091A606F6
:1021E0009091A7060E94100B88EB92E00E94590A7A
:1021F0006091A8067091A9068091AA069091AB06FD
:102200000E94100B85E992E00E94590A6091AD0688
:102210007091AE068091AF069091B0060E94100BAF
:102220008CE792E00E94590A6091AC0670E080E071
:1022300090E00E94F50A89E592E00E94590A6091B7
:10224000AC0670E080E090E022E030E040E050E05A
:102250000E94680A80E592E00E94590A6091B106E6
:102260007091B2068091B3069091B4060E94100B53
:102270008DE292E00E94590A6091B5067091B6060F
:102280008091B7069091B8060E94100B87EF91E0FD
:102290000E94590A82EB91E00E94590A08950E9417
:1022A000ED0F892B29F08AE691E00E94590A0895E2
:1022B0008FE291E00E94590A0E94930F0E942E1013
:1022C0000E94B1100895EF92FF920F931F93DF9336
:1022D000CF93CDB7DEB729970FB6F894DEBF0FBE08
:1022E000CDBF8C0181E08983F80180818432E1F5E2
:1022F0008181882319F40E94B11034C0C8017E0185
:102300000894E11CF11CB701AE014E5F5F4F0E94C3
:10231000F418892B59F19981F801E90FF11D808199
:102320008D3311F59F5F9983C801B701AE014A5FF4
:102330005F4F0E94F418892BC9F08981080F111D85
:10234000F8018081882381F46A817B818C819D8161
:102350000E94DE1BDC01CB014E815F81688579859F
:102360000E943C1080E003C083E001C081E0299618
:102370000FB6F894DEBF0FBECDBFCF91DF911F9196
:102380000F91FF90EF900895AF92BF92CF92DF929E
:10239000EF92FF920F931F93A090B506B090B606F0
:1023A000C090B706D090B806FC01E1A0F2A003A14E
:1023B00014A1C601B501A80197010E946F1B87FDFA
:1023C00005C0E0E070E080E86FE308C0C601B50139
:1023D000A80197010E94761BE62F692F2E2F372F19
:1023E000482F562FB901CA011F910F91FF90EF900E
:1023F000DF90CF90BF90AF9008958091950590E0C9
:1024000008959091870580918805981741F08091F3
:10241000880590E001968F709070809388050895EC
:102420009091870580918805981719F420E030E095
:1024300008C09091880581E4989F90011124295843
:102440003E4FC90108958F929F92AF92BF92CF9253
:10245000DF92EF92FF920F931F9349015A0120914F
:1024600096063091970640919806509199060E94E1
:10247000771E0E94141E29E8C22E25E0D22E6093FA
:10248000890570938A0580938B0590938C05C5010F
:10249000B40120919A0630919B0640919C06509180
:1024A0009D060E94771E0E94141EF60134966093CA
:1024B0008D05718382839383C801B70120919E06A5
:1024C00030919F064091A0065091A1060E94771E70
:1024D0000E94141E28E030E0C20ED31E60939105C6
:1024E000F6017183828393831F910F91FF90EF9088
:1024F000DF90CF90BF90AF909F908F9008954F92B4
:102500005F926F927F928F929F92AF92BF92CF9283
:10251000DF92EF92FF920F931F93CF93DF932C01E3
:10252000EB016115710509F45AC0FC01E1A4F2A4A4
:1025300003A514A569A47AA48BA49CA4C801B7011F
:10254000A40193010E946F1B88230CF048C0A9A02E
:10255000BAA0CBA0DCA0C601B501A80197010E94DA
:10256000771E9B01AC010E94771E7B018C0120919C
:10257000B1063091B2064091B3065091B40650585E
:10258000CA01B9010E94D01A20E030E040E752E4CD
:102590000E94771E20E030E040E752EC0E94771E58
:1025A000F20125A136A147A150A50E94771E9B01EB
:1025B000AC01C801B7010E94D01A0E94041FA601F5
:1025C00095010E94761B7B018C01A40193010E945E
:1025D0006F1B882324F4E9A6FAA60BA71CA7DF919A
:1025E000CF911F910F91FF90EF90DF90CF90BF9010
:1025F000AF909F908F907F906F905F904F900895D5
:102600002F923F924F925F926F927F928F929F9202
:10261000AF92BF92CF92DF92EF92FF920F931F93F0
:10262000DF93CF93CDB7DEB768970FB6F894DEBFD0
:102630000FBECDBF1C016A017B0128013901DC01FD
:1026400051966D917D918D919C9154970E940F1C94
:102650004B015C01A70196010E94771E0E945C1B42
:102660000E94E31B7B018C01F10165A776A787A778
:1026700090ABC501B401A30192010E94771E0E9494
:102680005C1B0E94E31B69877A878B879C87D1013B
:10269000D1966D937D938D939C93D497D5966D91A0
:1026A0007D918D919C91D89728E230E040E050E0F8
:1026B0000E94681F0E94111C20E030E040E752E4B5
:1026C0000E94771E0E94DE1B2B013C01C801B7014E
:1026D0000E940F1C7B018C01C301B2010E94111CDE
:1026E0006D837E838F839887C501B401A501940112
:1026F0000E94771E5B016C01C801B701A801970118
:102700000E94771E6D877E878F87988B6D817E8173
:102710008F8198859B01AC010E94D01A698B7A8BBE
:102720008B8B9C8BC601B5012D853E854F855889C5
:102730000E94CF1A29893A894B895C890E94761BAD
:102740000E945C1B0E94DE1B69837A838B839C83BF
:1027500069857A858B859C850E940F1C9B01AC0145
:102760000E94771E6D8B7E8B8F8B988FA6019501B3
:102770000E94CF1A7B018C01709460945094409415
:10278000411C511C611C711CC301B2010E94111C2F
:102790009B01AC010E94D01A9B01AC01C801B7019A
:1027A0000E94761B0E944C1CF101A584B684C7844C
:1027B000D0888601750129813A814B815C81E21ABA
:1027C000F30A040B150B0E94DE1BA8019701261BC0
:1027D000370B480B590BDA01C90157FF36C0C60148
:1027E000B5010E94111C9B01AC0169897A898B8912
:1027F0009C890E94771E2D853E854F8558890E94B1
:10280000CF1A2D893E894F89588D0E94D01A7B019D
:102810008C016D817E818F81988520E030E040E8D9
:1028200050E40E94771E9B01AC01C801B7010E94D1
:10283000761B0E945C1B0E94DE1B69837A838B835C
:102840009C8380E090E0A0E0B0E029813A814B8158
:102850005C81F10121AF32AF43AF54AF2DE330E0E3
:10286000220E331E29813A814B815C81820F931F96
:10287000A41FB51FF10180839183A283B38368965F
:102880000FB6F894DEBF0FBECDBFCF91DF911F9181
:102890000F91FF90EF90DF90CF90BF90AF909F90FF
:1028A0008F907F906F905F904F903F902F90089502
:1028B0004F925F926F927F928F929F92AF92BF9250
:1028C000CF92DF92EF92FF920F931F93DF93CF93FC
:1028D00000D000D0CDB7DEB78C012B01611571059A
:1028E00009F4E6C04115510561F0DA0199968D9120
:1028F0009D910D90BC91A02D89839A83AB83BC835D
:1029000007C0CB010E94C41169837A838B839C83A7
:102910000115110509F4C2C0F80165897689878916
:10292000908DD20155962D913D914D915C91589786
:102930000E94CF1A9B01AC010E94771E3B014C0103
:10294000F801618D728D838D948DD20159962D91F0
:102950003D914D915C915C970E94CF1A9B01AC0117
:102960000E94771E5B016C01F801658D768D878D65
:1029700090A1D2015D962D913D914D915C919097E2
:102980000E94CF1A9B01AC010E94771E7B018C0133
:10299000C401B301A60195010E94D01AA8019701B4
:1029A0000E94D01A0E94041F5B016C01E090B506E2
:1029B000F090B6060091B7061091B806A8019701ED
:1029C0000E94721D18165CF00F2EF0E06F2EF0E0E2
:1029D0007F2EF0E88F2EFFE39F2EF02D08C0C80158
:1029E000B701A60195010E94761B3B014C01C40171
:1029F000B30129813A814B815C810E94721D1816B6
:102A00000CF051C0F201A1A0B2A0C3A0D4A0C60195
:102A1000B50129813A814B815C810E94771E9B011F
:102A2000AC010E94771E7B018C012091B106309190
:102A3000B2064091B3065091B4065058CA01B9018C
:102A40000E94D01A20E030E040E752E40E94771E56
:102A500020E030E040E752EC0E94771ED2019596CC
:102A60002D913D914D915C9198970E94771E9B010D
:102A7000AC01C801B7010E94D01A0E94041FA60130
:102A800095010E94761B7B018C01A40193010E9499
:102A90006F1B882344F43701480105C0C2010E941E
:102AA000C4113B014C01F20161A672A683A694A653
:102AB0000F900F900F900F90CF91DF911F910F917A
:102AC000FF90EF90DF90CF90BF90AF909F908F904E
:102AD0007F906F905F904F9008952F923F924F920A
:102AE0005F926F927F928F929F92AF92BF92CF929E
:102AF000DF92EF92FF920F931F93DF93CF93CDB7A7
:102B0000DEB7A6970FB6F894DEBF0FBECDBF298FF4
:102B10003A8F4B8F5C8FED8EFE8E0F8F18A3A9A27C
:102B2000BAA2CBA2DCA29EA28DA2209196063091E1
:102B3000970640919806509199060E94771E0E9430
:102B4000141E5B016C0160909A0670909B06809049
:102B50009C0690909D0620919E0630919F06409184
:102B6000A0065091A10680918705282E3324089451
:102B7000211C311C8FE02822332407C083B78160D9
:102B800083BF889583B78E7F83BF8091880590E04F
:102B90008215930599F39091870581E4989F200110
:102BA0001124E7E7F1E04E0E5F1E809189059091B8
:102BB0008A05A0918B05B0918C0586017501E81AF4
:102BC000F90A0A0B1B0B17FF08C010950095F0942B
:102BD000E094E11CF11C011D111D6D8D7E8D8F8D0A
:102BE00098A10E94771E0E94141E69877A878B879E
:102BF0009C87698D7A8D8B8D9C8DA40193010E9499
:102C0000771E0E94141E6D837E838F839887A9820E
:102C1000BA82CB82DC82F201E082F18202831383EA
:102C20002D813E814F81588580918D0590918E0533
:102C3000A0918F05B0919005281B390B4A0B5B0BB7
:102C400057FF07C050954095309521953F4F4F4F06
:102C50005F4FF201248335834683578329853A8564
:102C60004B855C858091910590919205A09193058B
:102C7000B0919405281B390B4A0B5B0B57FF07C01B
:102C800050954095309521953F4F4F4F5F4FF20142
:102C90002087318742875387E480F580068117813A
:102CA00080819181A281B3818E159F05A007B10714
:102CB00010F4D801C70182179307A407B50710F4D1
:102CC000DA01C901F20185879687A787B08B009743
:102CD000A105B10509F445C269817A818B819C8186
:102CE0002091890530918A0540918B0550918C0582
:102CF000621B730B840B950B0E94111C209196068E
:102D00003091970640919806509199060E94761B43
:102D10006D8B7E8B8F8B988F6D817E818F81988557
:102D200020918D0530918E0540918F055091900531
:102D3000621B730B840B950B0E94111C20919A0649
:102D400030919B0640919C0650919D060E94761BF7
:102D5000698B7A8B8B8B9C8B69857A858B859C851F
:102D600020919105309192054091930550919405E1
:102D7000621B730B840B950B0E94111C20919E0605
:102D800030919F064091A0065091A1060E94761BAB
:102D90006D877E878F87988B6D897E898F89988DC7
:102DA0000E94421F3B014C0169897A898B899C8969
:102DB0000E94421F7B018C016D857E858F859889DD
:102DC0000E94421F5B016C01C401B301A80197017D
:102DD0000E94D01AA60195010E94D01A0E94041FD9
:102DE000F20165A376A387A390A72DA13EA1232B73
:102DF00069F429A13AA14BA15CA10E94761B20E0B5
:102E000034E244E759E40E94771E0AC060EC71EE98
:102E100084E69CE429A13AA14BA15CA10E94761B07
:102E20000E94141EAC01CB01DA01BC01CD010E944D
:102E30000F1C9B01AC0160EC71EE84E69CE40E94E7
:102E4000761B7B018C016D897E898F89988DA80105
:102E500097010E94771EF201658B768B878B908F8E
:102E600069897A898B899C89A80197010E94771EBC
:102E7000F201618F728F838F948F6D857E858F8530
:102E80009889A80197010E94771EF201658F768FBD
:102E9000878F90A365A176A187A190A5A80197012E
:102EA0000E94771EF20161A372A383A394A3658598
:102EB0007685878590890E94111C5B016C01A801B1
:102EC00097010E94771E0E945C1B0E94E31B3B013E
:102ED0004C01F201618B728B838B948B80E090E0CC
:102EE000A0E0B0E081A792A7A3A7B4A76091B10624
:102EF0007091B2068091B3069091B40620E030E064
:102F000040E752E40E94771E20E030E040E252E4C5
:102F10000E94761B7B018C01F20165A176A187A13D
:102F200090A5A60195010E94761B9B01AC01C801EA
:102F3000B7010E94761B0E945C1B0E94DE1BF201FF
:102F400065AB76AB87AB90AF80919505882359F040
:102F5000C2010E94C4118B019C01C201B901A801E8
:102F60000E9400131EC0F20165A676A687A690AA4D
:102F700061AA72AA83AA94AA11AE12AE13AE14AEBD
:102F80009201235C3F4F85859685A785B089F9011D
:102F900080839183A283B383F20115AA16AA17AA8C
:102FA00010AEF201148629813A814B815C818091B7
:102FB000890590918A05A0918B05B0918C05281701
:102FC00039074A075B0714F480E284872D813E812C
:102FD0004F81588580918D0590918E05A0918F0528
:102FE000B0919005281739074A075B0724F4F201CE
:102FF00084858064848729853A854B855C858091AA
:10300000910590919205A0919305B0919405281790
:1030100039074A075B0724F4F201848580688487B6
:1030200020928705A9E8B5E0FE0131968CE0019079
:103030000D928150E1F780919505882309F48FC0A6
:10304000D0908705EE24FF2440E050E012C0DA94CF
:10305000D7FE02C03FE0D32EFD2D21E4F202800115
:10306000112409581E4FC801B7010E945814A70126
:103070007801809188052D2D332727FD309590E02C
:103080002817390721F780E090E0B7010E94581413
:1030900040918805EE24FF2420E030E014C081E454
:1030A00048028001112409581E4FC901B701A80127
:1030B0000E947F12C601019660E170E00E94871FA6
:1030C000482F97017801C42EDD24C7FCD09480914D
:1030D000870590E0C816D90611F7C901B70140E08D
:1030E00050E00E947F1220918805EE24FF2420C02A
:1030F00091E4290260011124E7E7F1E0CE0EDF1E22
:10310000E114F10469F0F70141A552A563A574A586
:10311000F60101A512A523A534A5C7010E9400133D
:10312000C501019660E170E00E94871F282F76019B
:10313000A22EBB24A7FCB0948091870590E0A8162E
:10314000B906B1F6C7010E94C4118B019C01F701B9
:1031500041A552A563A574A5C7010E9400130E9452
:10316000C60BA6960FB6F894DEBF0FBECDBFCF91AB
:10317000DF911F910F91FF90EF90DF90CF90BF9064
:10318000AF909F908F907F906F905F904F903F9007
:103190002F900895CF93DF93EC0190E080919505F7
:1031A000811191E080E0209709F081E0981749F0C3
:1031B0000E94A20C10929505CD2B19F081E080930E
:1031C0009505DF91CF91089510928705109288059B
:1031D00081E090E00E94CA188CE0E9E8F5E0DF01A8
:1031E0001D928A95E9F70895AF92BF92CF92DF9230
:1031F000EF92FF920F931F93DF93CF9300D0CDB741
:10320000DEB76C015B017A01FB0180818601080F4A
:10321000111DC801BE016F5F7F4F0E94EB1FF701B8
:10322000608371838283938389819A818017910758
:1032300019F420E030E005C08C19F501808321E00D
:1032400030E0C9010F900F90CF91DF911F910F9146
:10325000FF90EF90DF90CF90BF90AF90089584B132
:10326000817F84B908952F923F924F925F926F921F
:103270007F928F929F92AF92BF92CF92DF92EF9206
:10328000FF920F931F93DF93CF9300D000D00F9244
:10329000CDB7DEB78983262E342E27013801609101
:1032A000A306461A510861087108882311F094EEAC
:1032B00001C090EE2110986031109061222311F02E
:1032C00080EE98279090AC0699268BB1992D907E30
:1032D0008F71982B9BB9862F90E0A0E0B0E08A8395
:1032E0009B83AC83BD8383B19981992329F019997C
:1032F00003C0A4E09A261982222029F01A9903C05B
:10330000B8E09B262224332029F01B9903C0E0E17A
:103310009E263324F981FF2329F4222019F4332037
:1033200009F4E6C08BB19CE1892E892088298BB9EC
:103330006A817B818C819D810E940F1C5B016C01E5
:103340002BEA3AEA4AEA50E40E94771E7B018C019C
:1033500020E030E040E85FE30E946F1B882314F414
:1033600061E053C0C801B70120E030E04FE753E40B
:103370000E94721D18160CF044C0C601B50120E071
:1033800030E04AE754E40E94761B5B016C0120E0C8
:1033900030E04AE755E40E94771E7B018C0120E073
:1033A00030E040E85FE30E946F1B88231CF461E07B
:1033B00070E023C0C801B70120E03FEF4FE757E4BA
:1033C0000E94721D1816ACF4C601B50120E030E071
:1033D00040E251E40E94771E0E94E31B06C080E990
:1033E00091E00197F1F76150704061157105B9F7EF
:1033F0000EC0C801B7010E94E31BCB010197F1F792
:1034000006C0C801B7010E94E31B6A95F1F78BB1B2
:1034100088268BB8C301B2010E940F1C5B016C01AE
:103420002BEA3AEA4AEA50E40E94771E7B018C01BB
:1034300020E030E040E85FE30E946F1B882314F433
:1034400061E053C0C801B70120E030E04FE753E42A
:103450000E94721D18160CF044C0C601B50120E090
:1034600030E04AE754E40E94761B5B016C0120E0E7
:1034700030E04AE755E40E94771E7B018C0120E092
:1034800030E040E85FE30E946F1B88231CF461E09A
:1034900070E023C0C801B70120E03FEF4FE757E4D9
:1034A0000E94721D1816ACF4C601B50120E030E090
:1034B00040E251E40E94771E0E94E31B06C080E9AF
:1034C00091E00197F1F76150704061157105B9F70E
:1034D0000ACFC801B7010E94E31BCB010197F1F7A6
:1034E00002CFC801B7010E94E31B6A95F1F7FBCE3A
:1034F0000F900F900F900F900F90CF91DF911F9131
:103500000F91FF90EF90DF90CF90BF90AF909F9082
:103510008F907F906F905F904F903F902F90089585
:10352000DF92EF92FF920F931F930E94A20CD3B0F1
:1035300080E060E041E020E0F0EAEF2EF6E8FF2EC8
:10354000F1E00F2F112D0E94331981E061E040E07E
:1035500020E00E94331983B18D258E7090E0BC016C
:1035600076956795769567956170AC0173E0569591
:1035700047957A95E1F7417096958795817021E09E
:1035800030E2E32E31EAF32E37E0032F112D0E94B3
:1035900033191F910F91FF90EF90DF9008955058CD
:1035A000BB27AA270ED03CC205D230F00AD220F0A9
:1035B00031F49F3F11F41EF4D5C10EF4E095E7FB02
:1035C000A2C1E92F4FD280F3BA17620773078407AD
:1035D000950718F071F49EF57EC20EF4E0950B2E5F
:1035E000BA2FA02D0B01B90190010C01CA01A00155
:1035F0001124FF27591B99F0593F50F4503E68F1B0
:103600001A16F040A22F232F342F4427585FF3CFF0
:10361000469537952795A795F0405395C9F77EF4C1
:103620001F16BA0B620B730B840BBAF09150A1F00A
:10363000FF0FBB1F661F771F881FC2F70EC0BA0F90
:10364000621F731F841F48F4879577956795B79518
:10365000F7959E3F08F0B3CF9395880F08F0992710
:10366000EE0F979587950895DF93DD27B92FBF77E4
:1036700040E85FE31616170648075B0710F4D92FDA
:1036800096D29F938F937F936F93FCD3E8E6F0E0FD
:103690006CD1C6D12F913F914F915F9134D3DD23EF
:1036A00049F09058A2EA2AED3FE049EC5FE3D07878
:1036B0005D2787DFDF91B4C1F7D180F09F3740F4F9
:1036C00091110EF409C260E070E080E89FE3089574
:1036D00026F01B16611D711D811D1BC135C1EFD068
:1036E00008F481E0089575D1E395ABC10CD098C181
:1036F00068D140F05FD130F021F45F3F19F003C191
:103700005111EAC12FC1AED198F39923C9F35523C2
:10371000B1F3951B550BBB27AA27621773078407C4
:1037200038F09F5F5F4F220F331F441FAA1FA9F37A
:1037300033D00E2E3AF0E0E830D091505040E6956C
:10374000001CCAF729D0FE2F27D0660F771F881FCD
:10375000BB1F261737074807AB07B0E809F0BB0BBC
:10376000802DBF01FF2793585F4F2AF09E3F5105E0
:1037700068F0C9C0B1C15F3FECF3983EDCF38695B9
:1037800077956795B795F7959F5FC9F7880F911D56
:103790009695879597F90895E1E0660F771F881F42
:1037A000BB1F621773078407BA0720F0621B730BF5
:1037B000840BBA0BEE1F88F7E095089504D0689447
:1037C000B1118AC1089556D188F09F5790F0B92F52
:1037D0009927B751A0F0D1F0660F771F881F991F66
:1037E0001AF0BA95C9F712C0B13081F074D1B1E0C6
:1037F000089571C1672F782F8827B85F39F0B93FD6
:10380000CCF3869577956795B395D9F73EF4909567
:103810008095709561957F4F8F4F9F4F0895E894E5
:1038200009C097FB3EF490958095709561957F4F08
:103830008F4F9F4F9923A9F0F92F96E9BB279395B6
:10384000F695879577956795B795F111F8CFFAF4C6
:10385000BB0F11F460FF1BC06F5F7F4F8F4F9F4FF7
:1038600016C0882311F096E911C0772321F09EE855
:10387000872F762F05C0662371F096E8862F70E0BB
:1038800060E02AF09A95660F771F881FDAF7880F95
:103890009695879597F9089507D180F09F3740F462
:1038A00091110EF019C160E070E080E89FEB08957F
:1038B00026F41B16611D711D811D2BC045C0990F7B
:1038C0000008550FAA0BE0E8FEEF16161706E807EA
:1038D000F907C0F012161306E407F50798F0621B0B
:1038E000730B840B950B39F40A2661F0232B242BE0
:1038F000252B21F408950A2609F4A140A6958FEFFF
:10390000811D811D089597F99F6780E870E060E050
:103910000895882371F4772321F09850872B762F10
:1039200007C0662311F499270DC09051862B70E0D3
:1039300060E02AF09A95660F771F881FDAF7880FE4
:103940009695879597F908959F3F31F0915020F40F
:10395000879577956795B795880F911D969587956B
:1039600097F908959FEF80EC0895DF93CF931F930D
:103970000F93FF92EF92DF927B018C01689405C058
:10398000DA2EEF01C0D1FE01E894A5912591359181
:1039900045915591AEF3EF0114DEFE019701A801A8
:1039A000DA9479F7DF90EF90FF900F911F91CF910C
:1039B000DF91089500240A941616170618060906C2
:1039C000089500240A941216130614060506089595
:1039D000C9CF50D0E8F3E894E0E0BB279F57F0F060
:1039E0002AED3FE049EC06C0EE0FBB0F661F771FC4
:1039F000881F28F0B23A62077307840728F0B25A8A
:103A0000620B730B840BE3959A9572F7803830F450
:103A10009A95BB0F661F771F881FD2F7904896CFE5
:103A2000092E0394000C11F4882352F0BB0F40F4CC
:103A3000BF2B11F460FF04C06F5F7F4F8F4F9F4F0C
:103A40000895EF93E0FF06C0A2EA2AED3FE049ECBB
:103A50005FEBB7DDE5DF0F90039401FC9058E5E9DB
:103A6000F0E025C257FD9058440F551F59F05F3FB5
:103A700071F04795880F97FB991F61F09F3F79F090
:103A800087950895121613061406551FF2CF469512
:103A9000F1DF08C0161617061806991FF1CF869594
:103AA0007105610508940895E5DFA0F0BEE7B91738
:103AB00088F4BB279F3860F41616B11D672F782F46
:103AC0008827985FF7CF869577956795B11D939571
:103AD0009639C8F30895E894BB2766277727CB016A
:103AE00097F90895ECDE08F48FEF089563DF19F07D
:103AF00068DF09F037CF07CFB901CA0125CF9F771B
:103B00005F77B0DF98F39923B9F35523B9F3FF2713
:103B1000951758F4E52FE91BED3070F75E3B10F078
:103B2000F1E41CC09034E0F40AC0E92FE51BED304D
:103B300028F79E3B10F0F1E411C0503488F4F9EA04
:103B400088232AF09A95660F771F881FDAF7442397
:103B50002AF05A95220F331F441FDAF79F1B5F1B71
:103B6000FF931F930F93FF92EF9279018A01BB2776
:103B7000AB2F9B01AC01C9D09701A801BF937B017A
:103B80008C01AA27BA2FB901CA01BFD0AF91970102
:103B9000A801EF90FF900F911F9113DD41DF34D109
:103BA0004F9140FF0895552747FD509509C09B014F
:103BB000AC0160E070E080E89FE398CDA4CEC4CE75
:103BC00059DFE8F39923D9F3940F511DBBF39150BA
:103BD000504094F059F0882332F0660F771F881F09
:103BE00091505040C1F79E3F510544F7880F911DF9
:103BF0009695879597F908955F3FACF0983E9CF0B5
:103C0000BB27869577956795B79508F4B16093952E
:103C1000C1F7BB0F58F711F460FFE8CF6F5F7F4F1C
:103C20008F4F9F4FE3CF58CF25DF58F19E5758F164
:103C30009851A0F0E9F0983020F5092E9927660FE9
:103C4000771F881F991F0A94D1F712C0062E672F7D
:103C5000782F8827985F11F4000C07C0993FB4F3C0
:103C60008695779567959395D9F7611D711D811D8F
:103C70003EF490958095709561957F4F8F4F9F4F43
:103C80000895689429CF27CFFA01DC01AA0FBB1F42
:103C90009B01AC01BF5728F42227332744275078D3
:103CA0001FC0B75188F4AB2F002446953795279550
:103CB000011CA395D2F3002069F0220F331F441F8B
:103CC000B395DAF30DD06BCC61307105A0E88A07AB
:103CD000B94630F49B01AC01662777278827907896
:103CE000309621F0208331834283538308950BD093
:103CF00097CE60DE28F065DE18F0952309F003CE3C
:103D000031CE1124E9CEAEDEA0F3959FD1F3950F0D
:103D100050E0551F629FF001729FBB27F00DB11D4F
:103D2000639FAA27F00DB11DAA1F649F6627B00DDF
:103D3000A11D661F829F2227B00DA11D621F739FC8
:103D4000B00DA11D621F839FA00D611D221F749FD6
:103D50003327A00D611D231F849F600D211D822F1D
:103D6000762F6A2F11249F5750408AF0E1F0882364
:103D70004AF0EE0FFF1FBB1F661F771F881F915071
:103D80005040A9F79E3F510570F0BDCDA5CE5F3FD5
:103D9000ECF3983EDCF3869577956795B795F795A4
:103DA000E7959F5FC1F7FE2B880F911D969587952C
:103DB00097F908955FDEE0F09E37D8F09639B8F4B1
:103DC0009E3848F4672F782F8827985FF9CF86951B
:103DD0007795679593959539D0F3B62FB1706B0FA2
:103DE000711D811D20F4879577956795939591CDE9
:103DF000ABCD72CE9F93EDDD0F9007FCEE5F21CE31
:103E000011F40EF4AFCDA0CD35DED0F39923D9F364
:103E1000CEF39F57550B87FF43D00024A0E640EA1E
:103E2000900180585695979528F4805C660F771F0F
:103E3000881F20F026173707480730F4621B730BE2
:103E4000840B202931294A2BA69517940794202505
:103E500031254A2758F7660F771F881F20F026174D
:103E60003707480730F4620B730B840B200D311DAC
:103E7000411DA09581F7B901842F9158880F96951F
:103E8000879508959B01AC0132CF0EDE20F09F375D
:103E900008F422CE3ECD58CD12DD880B990B089543
:103EA00091505040660F771F881FD2F708959F9357
:103EB0008F937F936F93FF93EF939B01AC0117DF79
:103EC000EF91FF9152DD2F913F914F915F910FCF75
:103ED000629FD001739FF001829FE00DF11D649FEE
:103EE000E00DF11D929FF00D839FF00D749FF00D7A
:103EF000659FF00D9927729FB00DE11DF91F639F1B
:103F0000B00DE11DF91FBD01CF011124089597FBEC
:103F1000092E07260AD077FD04D049D006D000200C
:103F20001AF4709561957F4F0895F6F790958195F5
:103F30009F4F0895A1E21A2EAA1BBB1BFD010DC0C5
:103F4000AA1FBB1FEE1FFF1FA217B307E407F50749
:103F500020F0A21BB30BE40BF50B661F771F881F25
:103F6000991F1A9469F760957095809590959B01BB
:103F7000AC01BD01CF01089597FB092E05260ED097
:103F800057FD04D0D7DF0AD0001C38F45095409577
:103F9000309521953F4F4F4F5F4F0895F6F790951D
:103FA0008095709561957F4F8F4F9F4F0895AA1B05
:103FB000BB1B51E107C0AA1FBB1FA617B70710F014
:103FC000A61BB70B881F991F5A95A9F78095909546
:103FD000BC01CD010895A0E0B0E0E1EFFFE10C9459
:103FE0007421EC015B016115710519F0FB019183EE
:103FF0008083F9908F2D90E00E944B21892BC9F787
:10400000FDE2FF1621F4F990EE24E39405C02BE2C3
:10401000F21609F4F990EE248E0101501040C80107
:1040200062E473E043E050E00E945321892B01F5E4
:104030008E010E5F1F4FC80165E473E045E050E05C
:104040000E945321892B19F48E01095F1F4FA1147F
:10405000B10419F0F50111830083E0FC04C070E0A5
:1040600090E080E814C070E090E080E86FEF08C155
:10407000C8016AE473E043E050E00E945321892BB9
:1040800069F4A114B10429F470E090E080EC6FE7CA
:10409000F7C02296F501D183C083F6CF88249924F6
:1040A00040E050E060E070E0EF2DE053EA30A0F532
:1040B000F2E0EF2A8E2D90E09C0128703070E2FE35
:1040C00006C0232B79F50894811C911C2BC0232B4F
:1040D00019F0089481089108DB01CA0112E0880FE9
:1040E000991FAA1FBB1F1A95D1F7480F591F6A1FA6
:1040F0007B1F440F551F661F771F4E0F511D611DFB
:10410000711D483929E9520729E9620729E1720737
:1041100048F084E0E82A06C0EE3F31F4E3FC39C001
:1041200098E0E92AF990C0CFE53311F0E53189F53F
:1041300029912D3219F4E0E1EE2A05C02B3219F055
:1041400081E090E003C0299182E090E0E22FE0530B
:10415000EA3018F0C81BD90B1CC020E030E0FCE0AE
:1041600020383F075CF4C901880F991F880F991FF9
:10417000280F391F220F331F2E0F311DE991E053F5
:10418000EA3068F3E4FE03C0309521953F4F820E7C
:10419000931ECE2CDD24E1FE07C0A114B10421F052
:1041A0002197F501D183C083CB01BA010E940F1C76
:1041B0007B018C01F3E0CF22DD2423E0C216D10481
:1041C00021F417FB109517F9109557016801C801E4
:1041D000B70120E030E040E050E00E946F1B8823F0
:1041E00009F44AC097FE0DC021E6E22E23E0F22E2C
:1041F0009094819491089394C0E2D0E000E010E0A4
:1042000012C099E7E92E93E0F92EF6CFF701259138
:10421000359145915491C601B5010E94771E5B010D
:104220006C018C1A9D0A8C169D0684F7D595C7954E
:104230000F5F1F4F0630110529F08CEF9FEFE80E3E
:10424000F91EF1CFC501D6017C018D018C2D880F9F
:104250008D2D881F8F3F51F0C601B50120E030E061
:1042600040E050E00E946F1B882331F482E290E02E
:104270009093BA068093B9067E2D9F2D802F612FD3
:10428000272F392F482F562FB901CA01CDB7DEB7D6
:10429000ECE00C94902191111EC0803219F08950ED
:1042A0008550D0F70895FB01DC014150504088F063
:1042B0008D9181341CF08B350CF4805E65916134F6
:1042C0001CF06B350CF4605E861B611171F3990B69
:1042D0000895881BFCCF9927882708952F923F9235
:1042E0004F925F926F927F928F929F92AF92BF9206
:1042F000CF92DF92EF92FF920F931F93CF93DF93B2
:10430000CDB7DEB7CA1BDB0B0FB6F894DEBF0FBE0E
:10431000CDBF09942A88398848885F846E847D845B
:104320008C849B84AA84B984C884DF80EE80FD805D
:104330000C811B81AA81B981CE0FD11D0FB6F894D3
:0E434000DEBF0FBECDBFED010895F894FFCF94
:00000001FF
